{
	"loop.sol": {
		"Loop": {
			"abi": [
				{
					"inputs": [],
					"name": "loop",
					"outputs": [],
					"stateMutability": "pure",
					"type": "function"
				}
			],
			"devdoc": {
				"kind": "dev",
				"methods": {},
				"version": 1
			},
			"evm": {
				"assembly": "    /* \"loop.sol\":60:342  contract Loop {... */\n  mstore(0x40, 0x80)\n  callvalue\n  dup1\n  iszero\n  tag_1\n  jumpi\n  0x00\n  dup1\n  revert\ntag_1:\n  pop\n  dataSize(sub_0)\n  dup1\n  dataOffset(sub_0)\n  0x00\n  codecopy\n  0x00\n  return\nstop\n\nsub_0: assembly {\n        /* \"loop.sol\":60:342  contract Loop {... */\n      mstore(0x40, 0x80)\n      callvalue\n      dup1\n      iszero\n      tag_1\n      jumpi\n      0x00\n      dup1\n      revert\n    tag_1:\n      pop\n      jumpi(tag_2, lt(calldatasize, 0x04))\n      shr(0xe0, calldataload(0x00))\n      dup1\n      0xa92100cb\n      eq\n      tag_3\n      jumpi\n    tag_2:\n      0x00\n      dup1\n      revert\n        /* \"loop.sol\":81:339  function loop() pure public  {... */\n    tag_3:\n      tag_4\n      tag_5\n      jump\t// in\n    tag_4:\n      stop\n    tag_5:\n        /* \"loop.sol\":147:156  uint256 i */\n      0x00\n        /* \"loop.sol\":142:332  for (uint256 i=0; i < 10; i++) ... */\n    tag_7:\n        /* \"loop.sol\":164:166  10 */\n      0x0a\n        /* \"loop.sol\":160:161  i */\n      dup2\n        /* \"loop.sol\":160:166  i < 10 */\n      lt\n        /* \"loop.sol\":142:332  for (uint256 i=0; i < 10; i++) ... */\n      iszero\n      tag_8\n      jumpi\n        /* \"loop.sol\":207:208  3 */\n      0x03\n        /* \"loop.sol\":202:203  i */\n      dup2\n        /* \"loop.sol\":202:208  i == 3 */\n      sub\n        /* \"loop.sol\":198:253  if (i == 3) {... */\n      iszero\n        /* \"loop.sol\":229:237  continue */\n      tag_9\n        /* \"loop.sol\":198:253  if (i == 3) {... */\n      jumpi\n        /* \"loop.sol\":276:277  5 */\n      0x05\n        /* \"loop.sol\":271:272  i */\n      dup2\n        /* \"loop.sol\":271:277  i == 5 */\n      sub\n        /* \"loop.sol\":267:319  if (i == 5) {... */\n      iszero\n        /* \"loop.sol\":298:303  break */\n      tag_8\n        /* \"loop.sol\":267:319  if (i == 5) {... */\n      jumpi\n        /* \"loop.sol\":142:332  for (uint256 i=0; i < 10; i++) ... */\n    tag_9:\n        /* \"loop.sol\":168:171  i++ */\n      dup1\n      dup1\n      0x01\n      add\n      swap2\n      pop\n      pop\n        /* \"loop.sol\":142:332  for (uint256 i=0; i < 10; i++) ... */\n      jump(tag_7)\n    tag_8:\n      pop\n        /* \"loop.sol\":81:339  function loop() pure public  {... */\n      jump\t// out\n\n    auxdata: 0xa26469706673582212208ec51388f8ad37d9308a294a6abd87ba2a20f07c32e70d9f846a466c4db4c77464736f6c63430008180033\n}\n",
				"bytecode": {
					"linkReferences": {},
					"object": "6080604052348015600e575f80fd5b5060928061001b5f395ff3fe6080604052348015600e575f80fd5b50600436106026575f3560e01c8063a92100cb14602a575b5f80fd5b60306032565b005b5f5b600a8110156059576003810315604d5760058103156059575b80806001019150506034565b5056fea26469706673582212208ec51388f8ad37d9308a294a6abd87ba2a20f07c32e70d9f846a466c4db4c77464736f6c63430008180033",
					"opcodes": "PUSH1 0x80 PUSH1 0x40 MSTORE CALLVALUE DUP1 ISZERO PUSH1 0xE JUMPI PUSH0 DUP1 REVERT JUMPDEST POP PUSH1 0x92 DUP1 PUSH2 0x1B PUSH0 CODECOPY PUSH0 RETURN INVALID PUSH1 0x80 PUSH1 0x40 MSTORE CALLVALUE DUP1 ISZERO PUSH1 0xE JUMPI PUSH0 DUP1 REVERT JUMPDEST POP PUSH1 0x4 CALLDATASIZE LT PUSH1 0x26 JUMPI PUSH0 CALLDATALOAD PUSH1 0xE0 SHR DUP1 PUSH4 0xA92100CB EQ PUSH1 0x2A JUMPI JUMPDEST PUSH0 DUP1 REVERT JUMPDEST PUSH1 0x30 PUSH1 0x32 JUMP JUMPDEST STOP JUMPDEST PUSH0 JUMPDEST PUSH1 0xA DUP2 LT ISZERO PUSH1 0x59 JUMPI PUSH1 0x3 DUP2 SUB ISZERO PUSH1 0x4D JUMPI PUSH1 0x5 DUP2 SUB ISZERO PUSH1 0x59 JUMPI JUMPDEST DUP1 DUP1 PUSH1 0x1 ADD SWAP2 POP POP PUSH1 0x34 JUMP JUMPDEST POP JUMP INVALID LOG2 PUSH5 0x6970667358 0x22 SLT KECCAK256 DUP15 0xC5 SGT DUP9 0xF8 0xAD CALLDATACOPY 0xD9 ADDRESS DUP11 0x29 BLOBBASEFEE PUSH11 0xBD87BA2A20F07C32E70D9F DUP5 PUSH11 0x466C4DB4C77464736F6C63 NUMBER STOP ADDMOD XOR STOP CALLER "
				},
				"gasEstimates": {
					"creation": {
						"codeDepositCost": "29200",
						"executionCost": "79",
						"totalCost": "29279"
					},
					"external": {
						"loop()": "infinite"
					}
				},
				"methodIdentifiers": {
					"loop()": "a92100cb"
				}
			},
			"storageLayout": {
				"storage": [],
				"types": null
			},
			"userdoc": {
				"kind": "user",
				"methods": {},
				"version": 1
			}
		}
	}
}